:020000040000fa
:080000000002040000000000f2
:020000040000fa
:0400080024030000cd
:020000040000fa
:04000c0024030000c9
:020000040000fa
:0400100024030000c5
:020000040000fa
:0400140024030000c1
:020000040000fa
:0400180024030000bd
:020000040000fa
:04001c0024030000b9
:020000040000fa
:0400200024030000b5
:020000040000fa
:0400240024030000b1
:020000040000fa
:0400280024030000ad
:020000040000fa
:04002c00c802000006
:020000040000fa
:0400300024030000a5
:020000040000fa
:0400340024030000a1
:020000040000fa
:04003800240300009d
:020000040000fa
:04003c00f6020000c8
:020000040000fa
:040040002403000095
:020000040000fa
:040044002403000091
:020000040000fa
:04004800240300008d
:020000040000fa
:04004c002403000089
:020000040000fa
:040050002403000085
:020000040000fa
:040054002403000081
:020000040000fa
:04005800240300007d
:020000040000fa
:04005c002403000079
:020000040000fa
:040060002403000075
:020000040000fa
:040064002403000071
:020000040000fa
:04006800240300006d
:020000040000fa
:04006c002403000069
:020000040000fa
:040070002403000065
:020000040000fa
:040074002403000061
:020000040000fa
:04007800240300005d
:020000040000fa
:04007c002403000059
:020000040000fa
:040080002403000055
:020000040000fa
:040084002403000051
:020000040000fa
:04008800240300004d
:020000040000fa
:04008c002403000049
:020000040000fa
:040090002403000045
:020000040000fa
:040094002403000041
:020000040000fa
:04009800240300003d
:020000040000fa
:04009c002403000039
:020000040000fa
:0400a0002403000035
:020000040000fa
:0400a4002403000031
:020000040000fa
:0400a800240300002d
:020000040000fa
:0400ac002403000029
:020000040000fa
:0400b0002403000025
:020000040000fa
:0400b4002403000021
:020000040000fa
:0400b800240300001d
:020000040000fa
:0400bc002403000019
:020000040000fa
:0400c0002403000015
:020000040000fa
:0400c4002403000011
:020000040000fa
:0400c800240300000d
:020000040000fa
:0400cc002403000009
:020000040000fa
:0400d0002403000005
:020000040000fa
:0400d4002403000001
:020000040000fa
:0400d80024030000fd
:020000040000fa
:0400dc0024030000f9
:020000040000fa
:0400e00024030000f5
:020000040000fa
:0400e40024030000f1
:020000040000fa
:0400e80024030000ed
:020000040000fa
:0400ec0024030000e9
:020000040000fa
:0400f00024030000e5
:020000040000fa
:0400f40024030000e1
:020000040000fa
:0400f80024030000dd
:020000040000fa
:0400fc0024030000d9
:020000040000fa
:0401000024030000d4
:020000040000fa
:0401040024030000d0
:020000040000fa
:0401080024030000cc
:020000040000fa
:04010c0024030000c8
:020000040000fa
:0401100024030000c4
:020000040000fa
:0401140024030000c0
:020000040000fa
:0401180024030000bc
:020000040000fa
:04011c0024030000b8
:020000040000fa
:0401200024030000b4
:020000040000fa
:0401240024030000b0
:020000040000fa
:0401280024030000ac
:020000040000fa
:04012c0024030000a8
:020000040000fa
:0401300024030000a4
:020000040000fa
:0401340024030000a0
:020000040000fa
:04013800240300009c
:020000040000fa
:04013c002403000098
:020000040000fa
:040140002403000094
:020000040000fa
:040144002403000090
:020000040000fa
:04014800240300008c
:020000040000fa
:0402080024030000cb
:020000040000fa
:04020c0024030000c7
:020000040000fa
:0402100024030000c3
:020000040000fa
:0402140024030000bf
:020000040000fa
:0402180024030000bb
:020000040000fa
:04021c0024030000b7
:020000040000fa
:0402200024030000b3
:020000040000fa
:0402240024030000af
:020000040000fa
:0402280024030000ab
:020000040000fa
:04022c00c802000004
:020000040000fa
:0402300024030000a3
:020000040000fa
:04023400240300009f
:020000040000fa
:04023800240300009b
:020000040000fa
:04023c00f6020000c6
:020000040000fa
:040240002403000093
:020000040000fa
:04024400240300008f
:020000040000fa
:04024800240300008b
:020000040000fa
:04024c002403000087
:020000040000fa
:040250002403000083
:020000040000fa
:04025400240300007f
:020000040000fa
:04025800240300007b
:020000040000fa
:04025c002403000077
:020000040000fa
:040260002403000073
:020000040000fa
:04026400240300006f
:020000040000fa
:04026800240300006b
:020000040000fa
:04026c002403000067
:020000040000fa
:040270002403000063
:020000040000fa
:04027400240300005f
:020000040000fa
:04027800240300005b
:020000040000fa
:04027c002403000057
:020000040000fa
:040280002403000053
:020000040000fa
:04028400240300004f
:020000040000fa
:04028800240300004b
:020000040000fa
:04028c002403000047
:020000040000fa
:040290002403000043
:020000040000fa
:04029400240300003f
:020000040000fa
:04029800240300003b
:020000040000fa
:04029c002403000037
:020000040000fa
:0402a0002403000033
:020000040000fa
:0402a400240300002f
:020000040000fa
:0402a800240300002b
:020000040000fa
:0402ac002403000027
:020000040000fa
:0402b0002403000023
:020000040000fa
:0402b400240300001f
:020000040000fa
:0402b800240300001b
:020000040000fa
:0402bc002403000017
:020000040000fa
:0402c0002403000013
:020000040000fa
:0402c400240300000f
:020000040000fa
:0402c800240300000b
:020000040000fa
:0402cc002403000007
:020000040000fa
:0402d0002403000003
:020000040000fa
:0402d40024030000ff
:020000040000fa
:0402d80024030000fb
:020000040000fa
:0402dc0024030000f7
:020000040000fa
:0402e00024030000f3
:020000040000fa
:0402e40024030000ef
:020000040000fa
:0402e80024030000eb
:020000040000fa
:0402ec0024030000e7
:020000040000fa
:0402f00024030000e3
:020000040000fa
:0402f40024030000df
:020000040000fa
:0402f80024030000db
:020000040000fa
:0402fc0024030000d7
:020000040000fa
:0403000024030000d2
:020000040000fa
:0403040024030000ce
:020000040000fa
:0403080024030000ca
:020000040000fa
:04030c0024030000c6
:020000040000fa
:0403100024030000c2
:020000040000fa
:0403140024030000be
:020000040000fa
:0403180024030000ba
:020000040000fa
:04031c0024030000b6
:020000040000fa
:0403200024030000b2
:020000040000fa
:0403240024030000ae
:020000040000fa
:0403280024030000aa
:020000040000fa
:04032c0024030000a6
:020000040000fa
:0403300024030000a2
:020000040000fa
:04033400240300009e
:020000040000fa
:04033800240300009a
:020000040000fa
:04033c002403000096
:020000040000fa
:040340002403000092
:020000040000fa
:04034400240300008e
:020000040000fa
:04034800240300008a
:020000040000fa
:100400004f8020000e7f22000e01880000000000b7
:10041000000020000000e000020032000001200087
:100420002002880014000700890007000000e00097
:1004300003003a00008b200001002000020037007a
:100440000000200001002000810f70000100320038
:1004500014000700000020000000e000020032004d
:1004600000000200000000000e0502000000000075
:100470000040da000000fe004440a900e002200035
:100480000000e0000300320000002000a00188000e
:100490004440a800000006008a1f78008b1f7800e7
:1004a0000000060091018800800478000000eb0045
:1004b0001a003700e284440032a0b4009905ba0063
:1004c000e284440032a0b4009906ba00e2844400f9
:1004d00032a0b4000006eb00476fde00fd07b2005b
:1004e000636ce10003003a00ebff07000000eb0043
:1004f0000a003700606ce10004003a00005deb0088
:100500008b05e900fdff3e00040037006168e10053
:10051000010032000086eb000b00070019c7ba008b
:100520001905ba000e04e00003003a000a00e000da
:10053000e0ff3a0000000600fe07b2009e018800be
:100540008a047800f5ff3700395dba008b05e900b1
:100550000c003200295dba008b05e900080032006a
:100560000c00e00003003a00e284440032a0b40032
:10057000f5ff370019ddba008b05e900faff3a00f4
:100580008904e800e184440032a0b40000000600c1
:100590003600f800809fbe00829fbe00849fbe0090
:1005a000869fbe003400f80000002000a0018800f3
:1005b0000000fa008420a900004080000000e8004c
:1005c00000408800a0002000390107000080fa00e8
:1005d0003400f9004f03be004f02be004f01be00c1
:1005e0004f00be003600f900004006003600f8005b
:1005f000809fbe00829fbe00849fbe00869fbe007b
:100600003400f80000002000a00188000000fa007b
:1006100084a0a900004080000000e900004088009c
:10062000a0002000220107000080fa003400f90039
:100630004f03be004f02be004f01be004f00be0080
:100640003600f900004006000040da000000fe001d
:0406500000000500a1
:020000040000fa
:10065400507200006573000073200000746f000086
:100664000053000074610000727400000052000026
:100674006564000000570000696e000073210000eb
:10068400004200006c75000065000000202000009e
:1006940052650000616400007900000053650000a9
:0c06a40074000000476f000021000000ff
:020000040000fa
:1006b0000000fa006ac0a800113a8000f00b200088
:1006c0000081600060042000710520002374200078
:1006d000804978008149780082497800713480002f
:1006e00000fe2f00008060000030a0007034880001
:1006f000103a8000000178000260a0006004200031
:100700007105200023742000804978008149780019
:10071000824978004221ef0042e1a800110a8000de
:1007200080ff2f00008060003000b300100a8800b6
:100730008420a9009420a8000080fa000000060090
:100740000000fa006b00a800113a8000f00b2000b6
:1007500000816000600420007105200023742000e7
:10076000804978008149780082497800713480009e
:10077000f00f2e00808060000060200001007000fb
:1007800070348800103a8000000178000260a000f8
:100790006004200071052000237420008049780047
:1007a00081497800824978004621ef0046e1a8009f
:1007b000310a800080ff2f00008060003000b3000d
:1007c000300a880084a0a90094a0a8000080fa0044
:1007d000000006000000fa000a0037008000eb006d
:1007e0000000eb0009010700a032280042010700c9
:1007f00021002000100020000401070030332800f1
:100800003d0107000140800000052000808f50005e
:1008100003003a00104080000000e000efff3200cb
:1008200010002000104088000080fa000000060040
:100830000600fa00200798002e0090000000e0005b
:1008400033003a0010c0b300a90007008000eb009d
:100850000000eb00ed0007009033280026010700a0
:100860003100200010002000e8000700d0332800ed
:10087000210107000000eb00100798001d00370061
:100880000000eb00000f7800050037000001eb00ce
:10089000f10f20000000eb00850107001e0fe800ab
:1008a0001e007800ef0f5000f8ff3400803e20005b
:1008b0007f0007000000eb00000f78000500370004
:1008c0000001eb008000eb000000eb007801070066
:1008d0001e0fe8001e007800ef0f5000f8ff3400f4
:1008e000803e2000720007001e0090000000e8001b
:1008f000100798001e009000e40f5000e0ff340045
:100900000228ef0000052000004088003500370075
:100910002e009000e10f500032003a0010c0b300ea
:10092000730007008000eb000000eb00b700070039
:1009300030342800f00007003100200010002000b3
:10094000b2000700d0332800eb0007000000eb00e6
:10095000100798001d0037000000eb00000f780022
:1009600005003700f20f20008000eb000000eb00d4
:100970004f0107001e0fe8001e007800ef0f500027
:10098000f8ff3400803e2000490007000000eb0023
:10099000000f7800050037000001eb008000eb003d
:1009a0000000eb00420107001e0fe8001e00780067
:1009b000ef0f5000f8ff3400803e20003c0007009d
:1009c0001e0090000000e800100798001e00900034
:1009d000e40f5000e0ff34000228ef000005200083
:1009e00000408800000520008d01070010c0b30002
:1009f0003f00070077ff070010c0b3003c0007006e
:100a000015010700000520000040880010002000ac
:100a1000104088000080fa00000006000000fa0084
:100a2000010107005a00070021ff070044ff0700eb
:100a3000000520007a01070066ff070010c0b30020
:100a40002b0007000401070000052000004088007b
:100a50000100370000000000004080007001070026
:100a6000004080000000e00003003a000000eb00be
:100a70006fff0700f8ff370001408000803e200034
:100a8000808f5000030036000000eb0068ff070075
:100a9000f1ff370001408000f0092000808f5000f6
:100aa000ecff36001000200061ff0700eaff37006e
:100ab0000200fa00000f7800020037007e3e0900b5
:100ac000000000001e00780000f0a7000000ea000f
:100ad0000000ea004f00de00004078001e0fe90031
:100ae0000004e000f5ff3a000080fa000000060074
:100af0000200fa00004f78001602a8000000000073
:100b0000b0108000610060000000e000fcff3a00cf
:100b10008a40a900c0072000901088000000000053
:100b200050048000640060000000e000fcff320020
:100b30008a40a9001222ef0000000000500480004b
:100b4000640060000000e000fcff32008a40a90061
:100b50001e00fb0090108800000000005004800080
:100b6000640060000000e000fcff32008a40a90041
:100b70001642a80000000000b01080006400600071
:100b80000000e000fcff3a000080fa0000000600d0
:100b90000000fa00d0092000a01088008a40a900b7
:100ba00017e2a80080022000c1ff070080c3b30045
:100bb000cfff070090c3b300cdff070040c1b300d3
:100bc000cbff070000c7b300c9ff0700e0c5b300b3
:100bd000c7ff0700c0c6b300c5ff0700800c200098
:100be000b3ff070080c3b300c1ff0700c0c0b3005c
:100bf000bfff070010c0b300bdff070020002000aa
:100c0000abff07000080fa00000006000600fa00b3
:100c100010079800210798000040eb00004f780073
:100c20001e009000e10f500002003a0000c4b30023
:100c3000004f78002e009000004078001e4f70009a
:100c40001e74a0001e407800a9ff07000080fa0073
:100c5000000006000200fa00004f78001602a8000b
:100c600000000000b0108000610060000000e000a3
:100c7000fcff3a008a40a900c007200090108800bd
:100c80000000000050048000640060000000e000ec
:100c9000fcff32008a40a900000420009010880068
:100ca0000000000050048000640060000000e000cc
:100cb000fcff32008a40a9001e00fb009010880053
:100cc0000000000050048000640060000000e000ac
:100cd000fcff32008a40a9001642a8000000000074
:100ce000b0108000640060000000e000fcff3a00eb
:100cf0000080fa00000006000400fa0010079800c7
:100d00000000eb00000f78001602a80000000000b1
:100d1000b0108000610060000000e000fcff3a00bd
:100d20008a40a900c0072000901088000000000041
:100d300050048000640060000000e000fcff32000e
:100d40008a40a90015003700000c20009010880090
:100d50000000000050048000640060000000e0001b
:100d6000fcff32008a40a9001e0078009e0090001f
:100d700000804000104078000000fb0090108800c8
:100d80000000000050048000640060000000e000eb
:100d9000fcff32008a40a9001e0fe8001e00780008
:100da0000000e8009e0090000080400010407800a5
:100db0000004e000e4ff3a000004200090108800e6
:100dc0000000000050048000640060000000e000ab
:100dd000fcff32008a40a9001e0078009e009000af
:100de00000804000104078000000fb009010880058
:100df0000000000050048000640060000000e0007b
:100e0000fcff32008a40a9001642a8000000000042
:100e1000b0108000640060000000e000fcff3a00b9
:100e20000080fa00000006000000fa00213a80006d
:100e3000f08f2f0000806000203a88000080eb00d7
:100e400060198800e0ff2f0000168800c422ef0020
:100e50000080fa00000006000000fa008000eb00ad
:100e60000000eb0069ff070080342800a2ff0700a4
:100e700080bb20000eff07008000eb001000200068
:100e800062ff0700003528009bff070080bb2000a1
:100e900007ff070051002000100020005bff070043
:100ea0004035280094ff07000080fa00000006008b
:100eb0000a00fa00200798003107980042079800be
:100ec00000082000000f78000000eb0010079800d9
:100ed0000000eb0010079800140037002e0090006f
:100ee0001e0060009e0f500007003a0095000700aa
:100ef0001e007800cf00de00008040000080d1009e
:100f0000000f780006003700870007001e007800f9
:100f1000cf00de00008040000080d100000f78008c
:100f20001e0090000000e800100798001e009000ce
:100f3000e70f5000e9ff340000082000000f7800a0
:100f40000000eb0010079800140037003e009000ee
:100f50001e0060009e0f500007003a007900070055
:100f60001e007800cf00de00008040000080d1002d
:100f7000000f7800060037006b0007001e007800a5
:100f8000cf00de00008040000080d100000f78001c
:100f90001e0090000000e800100798001e0090005e
:100fa000e70f5000e9ff340000082000000f780030
:100fb0000000eb0010079800140037004e0090006e
:100fc0001e0060009e0f500007003a005d00070001
:100fd0001e007800cf00de00008040000080d100bd
:100fe000000f7800060037004f0007001e00780051
:100ff000cf00de00008040000080d100000f7800ac
:101000001e0090000000e800100798001e009000ed
:10101000e70f5000e9ff34000080fa0000000600ee
:101020000600fa0020079800ae009000d0cc2c00fb
:101030000008b8004308de00100798000000eb002d
:10104000000f780005003700f20f20008000eb0051
:101050000000eb0096ff07001e0fe8001e00900046
:101060009e007800808f5000f7ff35002e01900021
:10107000d0cc2c000010b8004308de006a00b90094
:1010800000007800000051007c00b90000007800ea
:10109000800178002e019000d0cc2c000010b80008
:1010a0004308de006a00b90000007800000051002b
:1010b0007c00b90000007800f10f20000080500093
:1010c00003017800800078000000eb0078ff070043
:1010d000070037000001eb00f10f20000000eb00db
:1010e00073ff07001e0090000000e8001007980042
:1010f0001e0090000000e800ef0f5000f5ff3400e4
:10110000020007000080fa00000006003a0609000d
:101110000000000000000600c402a9007a3e090099
:101120000000000000000600c402a800040009003e
:1011300000000000c402a900050009000000000032
:1011400000000600c402a80008000900000000001a
:10115000c402a90001000900000000000000060010
:020000040000fa
:101160000008000002000000020000005000000023
:101170000208000002000000000000000000000063
:020000040000fa
:020000040001f9
:0457f8000ff90000a5
:020000040000fa
:020000040001f9
:0457fc007f3f0000eb
:00000001FF
